:020000040800F2
:1000000048150120690200089F0E01084BDD000819
:10001000110D0108D7BD0008BD1601080000000041
:10002000000000000000000000000000A90100081E
:10003000E5BD00080000000005020008E90F010806
:10004000830200088302000883020008830200087C
:10005000830200088302000883020008830200086C
:10006000830200088302000883020008830200085C
:10007000830200088302000883020008830200084C
:1000800083020008830200088302000800000000C9
:1000900000000000000000000000000083020008D3
:1000A000830200083D110108830200088302000852
:1000B000830200084D110108830200088302000832
:1000C00083020008830200088302000883020008FC
:1000D0008302000883020008830200080000000079
:1000E0008302000883020008830200080000000069
:1000F0000000000000000000000000008302000873
:100100000000000083020008830200088302000848
:1001100000000000000000000000000000000000DF
:10012000830200088302000883020008830200089B
:100130008302000800000000000000000000000032
:100140000000000000000000000000008302000822
:10015000830200088302000883020008830200086B
:100160008302000883020008000000000000000075
:10017000000000000000000000000000000000007F
:1001800000000000830200080000000000000000E2
:1001900083020008DFF80CD000F014FD004800478F
:1001A000B34A0108481501202C4B19680868B0E8CB
:1001B000F04F80F30988BFF36F8F4FF0000080F39A
:1001C000118870470000000008480068006880F34C
:1001D00008884FF0000080F3148862B661B6BFF360
:1001E0004F8FBFF36F8F00DF00BF00BF08ED00E04F
:1001F000DFF80C00016841F470010160704700BF36
:1002000088ED00E0EFF30980BFF36F8F134B1A689E
:100210001EF0100F08BF20ED108A20E9F04F10608B
:1002200009B44FF0500080F31188BFF34F8FBFF334
:100230006F8F15F07DFD4FF0000080F3118809BC31
:1002400019680868B0E8F04F1EF0100F08BFB0EC56
:10025000108A80F30988BFF36F8F70476800002011
:10026000EFF30580704700000648804706480047C6
:10027000FEE7FEE7FEE7FEE7FEE7FEE7FEE7FEE756
:10028000FEE7FEE7D9100108950100082DE9F05FAF
:100290000546002092469B468846064681464024F5
:1002A0001BE0284641464746224600F0DAFA53460C
:1002B0005A46C01A914110D311461846224600F002
:1002C000C1FA2D1A67EB01084F4622460120002192
:1002D00000F0B8FA17EB00094E41201EA4F101040A
:1002E000DFDC484631462A464346BDE8F09F10B55C
:1002F00040EA01040346A40703D009E010C9121F15
:1003000010C3042AFAD203E011F8014B03F8014BA1
:10031000521EF9D210BDD2B201E000F8012B491EE5
:10032000FBD270470022F6E710B513460A46044692
:100330001946FFF7F0FF204610BD034611F8012BC8
:1003400000F8012B002AF9D1184670472DE9FE4F1D
:10035000804681EA0300C00F0C46009021F0004166
:1003600023F00045B8EB0200A94105D240462146E2
:1003700090461C460B46024623F00040104347D0EF
:10038000270DC7F30A00C3F30A510290401A0190E7
:1003900040286BDAC3F3130040F4801B00989246A8
:1003A00020B10023D2EB030A63EB0B0B01985946F3
:1003B000C0F14002504600F045FA06460D46504650
:1003C0005946019A00F05DFA10EB080061410024E3
:1003D00087EA115284EAE7731A4340D0009A62B365
:1003E000019A012A4FEA075215DC001B61EB02015A
:1003F0004FF0004202EA0752CDE90042001C41F5ED
:10040000801132462B4600F0B2FA03B0BDE8F08FFF
:1004100040462146F9E7001B61EB0201001C41F553
:10042000801300185B412018A2F5001747EB030169
:1004300040EAD570B6196D4111E06D084FEA3606F5
:1004400045EAC0754FEA0752001B61EB0201001C30
:1004500041F5801149084FEA3000001951413246F8
:100460002B4603B0BDE8F04F00F072BA00980122AD
:1004700040000023D0EB020263EBE07300982146BA
:100480004FEAE074B8EB000061EB0401E9E783F0A8
:1004900000435BE781F0004158E72DE9FE4F81EA18
:1004A000030404F0004421F0004100944FF0000BDD
:1004B00023F0004350EA01045ED052EA03045BD00B
:1004C000C3F30A54C1F30A552C44A4F2F334019443
:1004D000A0FB0254C1F3130141F48011C3F31303D1
:1004E00043F4801301FB024400FB034E840A970A85
:1004F00044EA815447EA8357A4FB076802958D0AB2
:1005000005FB07854FEA932C04FB0C542705029D3D
:100510004FEA065847EA1637B5EB08056EEB070CAD
:10052000870E920E47EA811742EA8312A7FB020167
:10053000B6EB0B0164EB00042B0D43EA0C335E18A1
:1005400044EB1C50DA465146E7FB0201C5F31304A5
:100550004FEA0B3343EA14534FEA0432019C43EA57
:100560000603A4F10C040294009CCDE900B400F051
:10057000FEF903B0BDE8F08F00200146F9E72DE950
:10058000F04D81EA030404F0004B21F000451446CD
:100590004FF0000A23F0004150EA050220D054EA4F
:1005A00001021DD0C5F30A570246C5F31303C1F378
:1005B0001300C1F30A5640F4801543F48013A7EBEF
:1005C0000608101BD64608F2FD3873EB050002D36F
:1005D00008F1010801E092185B41B8F1000F03DA5D
:1005E00000200146BDE8F08D00204FF48011064642
:1005F00084460EE0171B73EB050705D3121B63EB54
:10060000050306434CEA010C49084FEA30009218F2
:100610005B4150EA0107EDD152EA030012D082EAB1
:10062000040083EA0501084305D0101BAB4106D244
:100630000122002306E000224FF0004302E06FF0A9
:10064000010253101AEB06004CEB085110EB0A00A4
:1006500041EB0B01BDE8F04D00F07AB930B5041E56
:1006600071F1000404DB4FF00044404264EB0101EF
:10067000141E73F1000405DB1C464FF00043524288
:1006800063EB0403801A994101D3012030BD00209F
:1006900030BD30B5041E71F1000404DB4FF000449E
:1006A000404264EB0101141E73F1000405DB1C469B
:1006B0004FF00043524263EB0403101A8B4101D206
:1006C000012030BD002030BD30B5041E71F10004A2
:1006D00004DB4FF00044404264EB0101141E73F14F
:1006E000000405DB1C464FF00043524263EB040359
:1006F000101A8B4101D3012030BD002030BD30B530
:10070000041E71F1000404DB4FF00044404264EB2E
:100710000101141E73F1000405DB1C464FF0004379
:10072000524263EB0403801A994101D2012030BD8B
:10073000002030BD30B5041E71F1000404DB4FF021
:100740000044404264EB0101141E73F1000405DB18
:100750001C464FF00043524263EB040342404B40BF
:100760001A4301D0002030BD012030BD0EB5C10FAD
:1007700080EAE0700844CA07002140F233438DE864
:100780000E000A460B4600F0F2F803B000BD0EB5AD
:1007900040F2334102910021CDE900110A460B4697
:1007A00000F0E5F803B000BD70B5C1F30A5201F0E6
:1007B00000450024C1F3130140F2FF3341F48011DE
:1007C0009A4201DA002070BD40F233439A42A2F20D
:1007D000334203DC524200F044F800E090402C43E6
:1007E000F1D0404270BD00F0004230F000400AD02D
:1007F000C10D01F56071C0F3160042EA0151C20853
:1008000040071143704700200146704701F0004344
:1008100030B421F0004150EA010206D00A0DA2F5E1
:100820006072C1F31301002A02DC30BC0020704763
:10083000440F44EAC104C100E01830BC00EBC250D0
:1008400000F031B8202A04DB203A00FA02F100203F
:1008500070479140C2F1200320FA03F319439040FE
:100860007047202A04DB203A21FA02F00021704769
:1008700021FA02F3D040C2F1200291400843194608
:100880007047202A06DBCB17203A41FA02F043EAF0
:10089000E07306E041FA02F3D040C2F12002914039
:1008A0000843194670470029A8BF7047401C4900FB
:1008B00008BF20F00100704710B4B0FA80FC00FAC5
:1008C0000CF050EA010404BF10BC704749B1CCF1F0
:1008D000200421FA04F411FA0CF118BF012121437C
:1008E0000843A3EB0C01CB1D4FEA00614FEA102037
:1008F00042BF002010BC704700EBC35010440029D9
:10090000A4BF10BC7047401C490008BF20F0010084
:1009100010BC704710B541000CD0C0F3C7519629E8
:1009200008DC7E2909DC06DB410204D000F000402F
:1009300040F07E5010BD002010BDC1F19604C4F1FE
:10094000200100FA01F1E040FFF7ADFFA04010BD2B
:1009500010B5141E73F1000408DA401C41F10001C7
:1009600092185B411A4301D120F0010010BD2DE91E
:10097000F04D92469B4611B1B1FA81F202E0B0FA15
:1009800080F220329046FFF75DFF04460F4640EAB2
:100990000A0041EA0B0153465A46084313D0114658
:1009A00053EA010019D0C8F140025046FFF759FF41
:1009B00005460E46504659464246FFF743FF084358
:1009C00005D0012004E020463946BDE8F08D002026
:1009D000054346EAE0762C4337430A986305E40A68
:1009E000A0EB08000022FD0A44EA47540A3002D571
:1009F00000200146E9E7010510196941DDE90845D4
:100A000000196941BDE8F04DA2E770B521F000433F
:100A100003430CD0C1F30A550024D5EB040564EB65
:100A20000403D617AD1AB34102DB0020014670BDA6
:100A3000201841EB025170BD2DE9F04D00231A46FC
:100A40001B1A8A4103DB00200146BDE8F08DC1F38B
:100A50000A52C1F3130141F480154FF0000BD10786
:100A600002D100186D41521E0027044640F2FF11CA
:100A7000384601EB620A3E468046024600204FF4AB
:100A80008011FFF7EEFEC2197141BB1846EB010061
:100A9000B4EB030C75EB000C04D3E41A65EB000512
:100AA00017460E46241908F101006D41804634288E
:100AB000E3DDF91946EB0600091BA84103D24FF00C
:100AC000FF32134601E0002213461BEB070046EB02
:100AD0000A51BDE8F04DFFF73BBF00002DE9F041A2
:100AE000054621F000400C46284309D0C4F30A50C3
:100AF00040F23341884205DD28462146BDE8F081B9
:100B00002846FBE740F2FE31884210DC0CDB4FEA5E
:100B1000043040EA155050EA053105D0104804F081
:100B2000004101430020E9E700200146E6E7A0F28A
:100B300033404642C6F1400228462146FFF782FE76
:100B400007468846284621463246FFF78AFE434636
:100B50003A46FFF7FDFE3246BDE8F041FFF772BEB0
:100B60000000F03F30B5041E71F1000404DB4FF0CB
:100B70000044404264EB0101141E73F1000405DBE4
:100B80001C464FF00043524263EB04038B4208BF04
:100B9000824230BD30B5041E71F1000404DB4FF019
:100BA0000044404264EB0101141E73F1000405DBB4
:100BB0001C464FF00043524263EB0403994208BFC6
:100BC000904230BD064C074D06E0E06840F001035E
:100BD00094E8070098471034AC42F6D3FFF7DEFAEA
:100BE000C4700108E470010870B58C1810F8015B3E
:100BF00015F0070301D110F8013B2A1106D110F8B6
:100C0000012B03E010F8016B01F8016B5B1EF9D1B9
:100C10002B0705D40023521E0DD401F8013BFAE73F
:100C200010F8013BCB1A921C03E013F8015B01F8AA
:100C3000015B521EF9D5A142D8D3002070BD00003F
:100C4000F0B597B0044601238DF8413016A9002372
:100C500001F8543D542002F09DFD012801D117B048
:100C6000F0BD00238DF80430029D002DF7D09DF8D3
:100C70000C30002BF3D09DF84030002BEFD09DF8C6
:100C800041209A42EBD30DF10C0C04F16C060DF1EE
:100C90003C0E67460FCF30607160B260F360BC46B7
:100CA00010367745F5D138683060E56110AD0FCD6D
:100CB0006065A165E265236603CD6066A166CEE747
:100CC000F0B597B0064601238DF8043000F15804C2
:100CD00003AF00F1880C3D4620686168A268E368B4
:100CE0000FC510342F466445F5D120682860B368DD
:100CF000029310AC56F8400F7168B268F3680FC4E5
:100D00003069716903C401A9542002F045FD17B090
:100D1000F0BD00BF10B5044600F008F882236381DF
:100D2000014B236110BD00BF5887002000230381C1
:100D3000C3607047037863B30B894A899A4227D00E
:100D400030B473B3CA680132B1F902301A44B2F157
:100D5000FF3F08BF002202F51C53103344689C4239
:100D600088BF4260058944682C44944215D80B8999
:100D70008BB1013BB1F90240C96804FB1313D31ACC
:100D80001BB2AB42B4BF00230123184630BC7047EE
:100D90000123184670470023F1E70023184630BCB2
:100DA00070470022D7E700BF2DE9F04103891FFA01
:100DB00082FE73455ED9A1F804E090F808C0ACEB60
:100DC000020C5FFA8CFC0389013BB0F90240C56854
:100DD00004FB13530B608B88DBB10026F70003691B
:100DE00013F836408B6803F8364000250369DC1998
:100DF0004FEA45084444B4F902408B683B444344FD
:100E00005C800135032DF1D10136F6B28B88B342F7
:100E1000E4D803899E452AD2A3EB0E0EA0F808E081
:100E2000BCF1000F21D00CF1FF3C5FFA8CFC0CF1FF
:100E3000010C4FEACC0CD2000026B6460369971984
:100E4000D95D995500210369DC194D002C44B4F992
:100E5000024033442B445C8001310329F3D1036900
:100E600003F807E008366645E8D1BDE8F0810023C5
:100E70000381D5E78B804FF0000CA4E72DE9F04FFC
:100E80002DED0C8BDFF80CB4ADF26C5D82231A46AD
:100E90000BF58C6056AC17A9ADF860301994FFF7CC
:100EA00083FFBDF86000BBF96224179B00F1FF3996
:100EB00002FB09320992CBF8AC24002800F07782BB
:100EC000DBF87C344FF47A7102F5C33201FB03F195
:100ED000A0328A4280F0718200228BF80025002B1C
:100EE00040F07682CBF87C340022CBF87834CBF813
:100EF00080240023FF22CBF80835CBF80C35CBF843
:100F00001035CBF81435CBF81C35CBF818358BF8E9
:100F10000225DC4BDDF864A0DB4FDFEDDC7AD3ED9E
:100F2000012AD3ED1F5A93ED1C5AD3ED234A93EDBA
:100F30001D4AD3ED273A93ED1E3A02904FF0000C74
:100F40001FFA89F947F6FF714D46CDE904CCCDE98A
:100F500006CC6FF080244FF080224FF400438E4681
:100F6000032D46943692ADF8DC30CDF820A05346E0
:100F7000CDF82890B0EE677AADF81C110191884643
:100F800028BF0325CDED0D7A0097CDF80CC0624641
:100F9000664664463846F146BA461978002947D075
:100FA000B3F90220974206F10106BCBF17464FF085
:100FB000010C964576B202DD01219646049107EEBA
:100FC000902AF8EEE77AB3F9042077EEC57A9042DA
:100FD00067EEA57A67EEA77A02DA0121104605913D
:100FE000914502DD01219146069106EE902AF8EE28
:100FF000E66AB3F9062076EEC46A524566EEA46A44
:10100000E6EEA67A37EE877A02DD01219246079155
:10101000424502DA01219046039107EE902AF8EE4C
:10102000E77A012277EEC37A67EEA37AA7EEA77A72
:101030000134A4B2AC4203F10803AED90090029887
:10104000CDF80490A042CDF808A0DDF82890DDF896
:1010500020A040F2C181A9EB040914FA89F90AEB36
:10106000C404AAF1160A0AEBC9091E3C4FF0000A93
:10107000CDF820C0A37F002B00F09280B4F920109F
:101080000136B94276B202DD01230F46089371455D
:1010900002DA01238E46049307EE901AF8EEE77AFF
:1010A000B4F92220009B77EEC57A9A4267EEA57AC2
:1010B00067EEA77A02DD012300920593019B9A4215
:1010C00002DA01230192069306EE902AF8EEE66A10
:1010D000B4F92430029876EEC46A834266EEA46ABC
:1010E000E6EEA67A37EE876A02DD012002930790CA
:1010F000434502DA012098460390B4F908C0B4F9D8
:101100000050B4F91800491BA0EB0C0000EB4100A3
:1011100007EE900AB4F91A10B4F90AC0B4F90250F3
:10112000B4F91C00B8EEE77A521BA1EB0C0101EBFD
:101130004201B0EEC77A07EE901AFCEEC76AF8EEED
:10114000E77AB8EE667AB4F90C20B4F90410F0EE40
:10115000E77A37EE277A801A07EE903A591A00EBB1
:101160004100F8EEE76A07EE900ABCEEC77AF8EEA7
:10117000E77AB8EE477AF0EEE77A77EE877A76EE9E
:10118000C36AFCEEE77A66EEA36AB0EE467A17EE23
:10119000903AA6EEA67A9A454FF0010238BF9A46D9
:1011A0000834A1457FF466AFDDF820C0DFED377A63
:1011B000039B002A08BFB0EE677A002B40F00F8136
:1011C000079B1BB1BDF80830ADF8DC30069B1BB1A6
:1011D000BDF80430ADF81A31059B1BB1BDF80030E5
:1011E000ADF8DA30049B0BB1ADF818E1BCF1000F9B
:1011F00041F0FA81244F002E00F0F480BDF9D83080
:10120000B3F5804F80F2B081BDF9180110F5804F21
:10121000C0F2AA81BDF9DA30B3F5804F80F2A48123
:10122000BDF91A2112F5804FC0F29E81BDF9DC1084
:10123000B1F5804F80F29881BDF91C4114F5804FC3
:10124000C0F2928107EE906AB8EEE76AF7EE006AA4
:10125000C7EE067A9A1A091B8A421346A7EB0007C3
:10126000B8BF0B46BB42B8BF3B4686EEA26AB1EEA2
:10127000E77A06EE903ADFED067AF8EEE66A66EE79
:10128000277A0FE0B88B00200080FFFF00000000ED
:10129000000002435887002000007A440000C84242
:1012A00000FF7F4722EE877AF4EEE67AF1EE10FA3D
:1012B00000F15A8107EE90AAF8EE677A5FED0A5ABC
:1012C00067EEA22AF4EEE52AF1EE10FA00F34C8163
:1012D000F1EE047A26EE276AB4EEE66AF1EE10FA31
:1012E00000F3FF84F1EE007A66EE277AF4EEE76A07
:1012F000F1EE10FA40F3FB8407EE907A36EE066AC0
:10130000F8EEE77AF4EEC67AF1EE10FA40F3EF84E5
:1013100007EE902AF8EEE77AB4EEE76AF1EE10FAFB
:1013200040F1E58407EE901AF8EEE77A4FF00009F5
:10133000B4EEE76AF1EE10FA4CBF4FF0010ACA466C
:101340005FED2A6A5FED2A7A9BF8CC5427EE267A65
:101350000023B4EEE77AF1EE10FA88BFB0EE677AB8
:10136000012D8DED0D7A009355D9FCEEC77ACDEDA8
:10137000017ABDF80430C83B9BB244F62C4293423C
:1013800009D90025FF238BF8CC548BF800558BF836
:10139000B4548BF80235009B022B3CD10022FF2372
:1013A0000999CBF880148BF800258BF802350DF2E3
:1013B0006C5DBDEC0C8BBDE8F08FDBF804158A4248
:1013C000FFF48AAD9BF80035002B7FF4A2AD90E5C9
:1013D0000123CBF87C3487E54FF0000AE6E6ADF850
:1013E0001C81EDE65FED536A5FED537A9BF8CC54B8
:1013F00027EE267AB4EEE77AF1EE10FA88BFB0EE67
:10140000677A012D8DED0D7A88BF009600F2C280BB
:10141000B1460096B2469BF986349BF88574002B42
:10142000C0F2C280013393FBF7F407FB14335CB2C4
:101430008BF886449BF884640136BE42A8BF3E46C2
:101440005FFA86F817EE100A8BF8848414F0A0F97E
:1014500007EE900AFCEEE77A0BEB440317EE900AD6
:10146000A3F88804009B002B98D1DBF8803423B1CB
:10147000099903F59662914299D3B9F1000F96D17B
:10148000AA1E012A40F26383E34BDFEDE47A93ED79
:10149000018ABDF86040DBF80435179ABBF9620495
:1014A0009BF80055B7EE007AC7EE088A03F51C5189
:1014B000013C00FB04241031A142B0EE089A28EE52
:1014C000899A69EE277AFCEEE77A17EE902A1FFADE
:1014D00082F97FD242F2283294429BF801059BF9AF
:1014E00002251ABFA4F50C54283C0024A84202F19E
:1014F000010200F09F86521B92FBF0F100FB1122CB
:10150000002A16B2BCBF121816B22FB2002F5ED03E
:1015100000221B1B99B201929646AC46029403E04E
:10152000013213B29F4243DD06EB020898FBF0F351
:1015300000FB1383DBB204330BEBC303B3F800856A
:1015400088440FFA88F8B8F1000FA3F80085E7DAAD
:101550000CF1FF33BCF1000F00F0F682012401947E
:101560005FFA83FCA646DBE7DFEDAD6ADFEDAD7A1F
:101570009BF8CC5427EE267AB4EEE77AF1EE10FA17
:1015800088BFB0EE677A012D8DED0D7A7FF606AF3C
:1015900002230093FCEEC77A4FF0000ACDED017AEA
:1015A000BDF80430D146E6E600248BF8864441E7D6
:1015B000DDE90134002B40F03587BEF1000F06D085
:1015C000B0EE490A484601F0AFFF9BF80055CBF852
:1015D00004452346002D00F0FA829BF90225179955
:1015E0000BEBC202B2F9202502F59C5208321344DB
:1015F000994200F2E781BAF1000F04D19BF800355F
:101600000A2B40F2E882BDF860300193002B00F015
:10161000E282DFED856A9FED857ACDF818A029EE8C
:1016200009AAF6EE007AF7EE089A002328EE268A39
:101630002AEE07AA68EEA78A69EE299A04931A4649
:101640001C46199B13F8341003EBC403A4B2002901
:1016500000F02381B3F90250B3F90460B3F90670C6
:1016600007EE905AF8EEE77AF0EEE77AF4EEE87AD1
:10167000F1EE10FA16D507EE906AF8EEE77AF0EE82
:10168000E77AF4EEE78AF1EE10FA0BDD07EE907AD6
:10169000F8EEE77AF0EEE77AF4EEE78AF1EE10FA88
:1016A00000F3FB809BF80085B8F1000F00F09A81F1
:1016B000BBF91A28BBF91818BBF91C38921B02FB9E
:1016C00002F04A1B02FB0202DB1B03FB032307EEB3
:1016D000903AF8EEE77AB4EEE7AAF1EE10FA00F3EA
:1016E000DC8095FBF9F309FB1353002BB8BF4B4487
:1016F0001BB207EE903AF8EEE77A67EE887A17EEBB
:10170000900A14F045F896FBF9F307EE900A09FBEE
:101710001363002BB8BF4B44FCEEE77A1BB2CDED50
:10172000027A07EE903AF8EEE77A9DF808A067EEA5
:10173000887A17EE900A14F02BF897FBF9F307EE6E
:10174000900A09FB1373002BB8BF4B44FCEEE77AF9
:101750001BB2CDED027A07EE903AF8EEE77A9DF8EB
:101760000820029267EE887A17EE900A14F010F8BB
:1017700007EE900AFCEEE77ABAF11F0FCDED037A7F
:101780009DF80C10DBF80825DBF80C35039140F2CE
:10179000CB81AAF12003012101FA03F3134002983F
:1017A000DBF81015DBF814251F2840F2C681A0F1E4
:1017B0002002012000FA02F202EA010E039ADBF88D
:1017C0001C15DBF818051F2A40F2B381A2F1200096
:1017D000012202FA00F00140002940F099819BF9B2
:1017E00002159BF801C54A1C0592002B00F00B82E4
:1017F000E045059B00F0F984A3EB080292FBFCF3A3
:101800000CFB1323002B0FFA83FEBCBF63440FFABB
:1018100083FE002211E000BFB88B002000007C4254
:101820000000C84200FF7F47ABAAAA3E6666663F3B
:101830006F12833A984540F2EA810EEB020191FB68
:10184000FCF30CFB1313DBB204330BEBC3030132C9
:10185000B3F90205B3F90415B3F90635281A711A5C
:1018600006EE100A07EE101AFB1A07EE903AB8EED1
:10187000C66AB8EEC77AB0EEC66AB0EEC77AF8EEBE
:10188000E76A36EE077AF0EEE67A77EE277AD3B299
:10189000F4EEE79AF1EE10FACCDD0134019B24B2AC
:1018A0009C422246FFF6CDAEDDF818A0049A9BF8C4
:1018B00074341A438BF87424002A3FF478AD9BF8F3
:1018C00000350193192B7FF672ADDBF87C3402935F
:1018D000002B00F08284DBF87834002B00F07D844C
:1018E000DDED097A5FED2E6AB8EE677A07EE903A81
:1018F000F8EE677AD7EE267AF7EE086AF4EEE67A23
:10190000F1EE10FA00F26984BAF1000F3FF44FAD26
:10191000DDED027A5FED3A6AF8EE677AD7EE267A65
:10192000B7EE087AF4EEC77AF1EE10FA4CBF012355
:1019300000230393E249DBF80895D1ED018ADBF837
:101940000C85DBF814E5DBF818C5DBF81075DBF85F
:101950001C6500222992144610461146CDE92A2220
:10196000CDE92C22012519E0A1F1200305FA03F3AA
:1019700019EA030F07EA030A30D00130C0B2BAF106
:10198000000F01D00134E4B233400131002B0CBF11
:101990001346531C4029DAB200F0AE811F29E3D868
:1019A00005FA01F308EA030ABAF1000F18BF013083
:1019B0001EEA030F18BF0134C0B218BFE4B20CEA2C
:1019C0000303E2E70022FF23B0EE490A48468BF802
:1019D00000258BF8023501F0A7FD0CE6BAF1000FE7
:1019E000D0D1D1E7BBF96204179B95FBF9F102FB5B
:1019F000003209FB1153002BB8BF4B441BB207EE5A
:101A0000903AF8EEE77A4FF0010C67EE887A8BF89F
:101A100000C517EE900ACBF80425ABF82255ABF8B9
:101A20001858ABF82465ABF81A68ABF82675ABF814
:101A30001C788BF80285ABF8208513F0A9FE96FB85
:101A4000F9F307EE900A09FB1366002EB8BF4E4467
:101A5000FCEEE77A33B2CDED027A07EE903AF8EE7B
:101A6000E77A9DF8085067EE887A17EE900A13F02F
:101A70008FFE97FBF9F307EE900A09FB1377002F0F
:101A8000B8BF4F44FCEEE77A3BB2CDED027A07EEE9
:101A9000903AF8EEE77A9DF8086067EE887A17EEDC
:101AA000900A13F075FE07EE900AFCEEE77A1F2D00
:101AB000CDED027A9DF8083040F29B80DBF80815E6
:101AC000A5F12002012000FA02F222EA01024A40B6
:101AD000CBF808251F2E40F28280DBF81015A6F106
:101AE0002002012000FA02F222EA01024A40CBF869
:101AF00010251F2B00F2E880DBF81825012101FAE0
:101B000003F323EA02035340CBF818350491C4E6EB
:101B10001BB1BEF1000F7FF4C0AE9BF902359BF8FC
:101B200001C50133059363E6012202FA0AF213406C
:101B300035E60121914001404EE60146012000FAC0
:101B400001F102EA010E39E64FF0010EE8E4B84572
:101B500000F07783DBF87C24032D7FF495AC07EE4F
:101B6000903ADBF87834DFED576AF8EE677A07EEE3
:101B7000103A67EEA67AB8EE477AB4EEE77AF1EE5D
:101B800010FA7FF781AC002A3FF47EACDDED097AD4
:101B90000A32B8EE677A07EE902A27EE267AF8EE38
:101BA000677AB4EEE77AF1EE10FA7FF76DAC9BF846
:101BB0007534002B7FF468AC9BF8B434002B3FF4F1
:101BC000F6AB9BF8BC34FF2B7FF4F1AB5CE4BAF1CD
:101BD000000F7FF418AD002304931A4667E6DBF884
:101BE00014150122B24022EA01024A40CBF8142522
:101BF0007FE7DBF80C150122AA4022EA01024A40E5
:101C0000CBF80C2566E7BEF1000F7FF4F1AD059B24
:101C1000179A93FBFCF108F101080CFB1131DBF87A
:101C20000435BBF86204ABF81858E04549B2A8BFC8
:101C3000E046D31A0A1D0BEBC2025FFA88F810FBCC
:101C40000433E045ABF81A688BF80085ABF81C78D4
:101C50008BF80215A2F80255A2F80465A2F80675E1
:101C6000A2F8003500F06C83BAF11F0F40F2D08269
:101C7000DBF80825AAF12003012101FA03F323EA86
:101C800002035340CBF80835029B1F2B40F2B5826C
:101C9000DBF81025203B012101FA03F323EA0203BC
:101CA0005340CBF81035039B1F2B00F2BC82BDF8CC
:101CB00060300193DBF81825039B01211FE700BF6B
:101CC000B88B00206F12833ADBF81C25203B0121E2
:101CD00001FA03F323EA02035340CBF81C350491C5
:101CE000DBE54FF0000A4FF00109FFF729BB4FF089
:101CF000000AD146FFF724BB052840F26982052C73
:101D000040F26682052A40F263829BF80165019ADF
:101D10009BF902A5B2420AF1010300F067839A1A07
:101D200092FBF6F306FB1323002B19B2BCBF9B19E1
:101D300019B201F11503DB000BEB03029B48B2F96A
:101D40007E54B2F97AC4B2F97C74ADF848500022DE
:101D50000344CDE90622D3F81A3011931393E046D9
:101D6000ADF85050A946BE460A9208920B920592D1
:101D70000491049B981890FBF6F306FB1303DBB267
:101D800015330BEBC300B0F97A44644502DD012042
:101D9000A4460B900BEBC300B0F97C04B84202DD03
:101DA000012107460A910BEBC303B3F97E34AB4222
:101DB00002DD01211D460891444502DA0121A046B9
:101DC0000791704502DA0121864606914B4502DAF9
:101DD00099460123059301320198D3B29842C8D89D
:101DE000069B0499002B40F02483079B0BB1ADF8B0
:101DF0004C80059B0BB1ADF850900B9B0BB1ADF82F
:101E000044C0089B0BB1ADF848500A9B0BB1ADF82C
:101E10004670F7EE007A87EEA89ABDF84650BDF8F6
:101E20004E00BDF84470BDF84C20BDF84840BDF8E8
:101E30005030281A9BF8B454BA1AE31A12B29FED24
:101E40005C5A00B229EE055A1BB2002D40F0B58253
:101E50009BF8CC44B4FA84F46409049407EE102A85
:101E6000F0EE087A65EE277AB8EEC77AB4EEE77A34
:101E7000F1EE10FA00F3858206EE900AF8EEE66ABB
:101E8000F4EEE67AF1EE10FA00F17B8206EE103AFB
:101E9000B8EEC66AF4EEC67AF1EE10FA00F171827D
:101EA00093421C46A8BF144624B28442A8BF0446ED
:101EB00090420546B8BF15469C42A8BF1C469D42AD
:101EC000B8BF1D460FFA85FA24B29245ADF84E40D0
:101ED00040F37682944280F273820125824500F3BA
:101EE0009982534580F29182A34240F38E82ADF8ED
:101EF0004E30049B002B00F04281B4EEC75AF1EE45
:101F000010FA0CDCB4EEE65AF1EE10FA07DCB4EE8F
:101F1000C65AF1EE10FACCBF012300230493DFED83
:101F2000257A05EE90AA65EE277AF8EEE55AF4EEEA
:101F3000E75AF1EE10FA1EDBBDF94E3005EE903A8D
:101F4000F7EE027AF8EEE55A65EE277AF4EEE75AF4
:101F5000F1EE10FA0FDBBAEB440F0CDA07EE904A01
:101F6000F8EEE77AF7EE045A67EEA57AB4EEE75A90
:101F7000F1EE10FA22D4F7EE027A27EE277AB4EEC9
:101F8000C75AF1EE10FA00F3238166EEA76AB4EEA9
:101F9000E65AF1EE10FA00F31B8166EE277AB4EEF2
:101FA000E75AF1EE10FA00F3138107E0B88B002036
:101FB00000003442CDCCAC3F000000004FFA81F964
:101FC000002709F101030293B8463B464FF0010E8A
:101FD000029A09EB03011A4491FBF6F306FB131373
:101FE0005CB2002CB8BF9B1992FBF6F106FB1121E5
:101FF000B8BF5CB249B2043104340BEBC4020BEB42
:10200000C103B2F90205B3F902351A1A002A9BB2CC
:1020100080B2B4BFC31A1B1A0BEBC40218B20BEB8D
:10202000C103B2F90425B3F904359D1A002D9BB202
:1020300092B2B4BFD31A9B1A0BEBC1050BEBC402CF
:102040000BEBC1010BEBC404B5F90655B2F906253B
:10205000B1F80015B4F80045A5EB020C091B92B2CB
:10206000BCF1000FADB209B2B4BF521BAA1A0029CD
:102070001BB212B21EDD03441A444FF47A7303FB01
:1020800002F207EE902A07EE101AF8EEE77AB8EEA1
:10209000C77A67EEA87A08F10108C7EE876A5FFA87
:1020A00088F8FDEEE67A17EE903A1BB2962BC4BF85
:1020B0000137FFB2734601990EF1010E5FFA8EF2FD
:1020C000914285D807EB4707474540F38180039B42
:1020D0002BB99BF8CC34023B012B40F2AD8120227E
:1020E00000212EA8FEF720F99BF800859BF801251A
:1020F0009BF9023500219045CDE91A111C9103F19D
:10210000010300F04F82A3EB080393FBF2F102FB03
:102110001133002B19B2BCBF9B1819B25FED5A7A6C
:102120000020B0EE677AF0EE676A0446C3B29845C5
:1021300001EB000540F2D48195FBF2F302FB13534F
:10214000DBB204330BEBC3030130B3F9024505EEF8
:10215000104AB3F90445B3F9063505EE904A06EE88
:10216000103AB8EEC55AF8EEE55AB8EEC66A76EE01
:10217000856A37EE257A77EE867A0124D6E7CB4B4F
:102180009FEDD04AD3ED234AD3ED1F7AD3ED275AE2
:1021900077EEA47AF7EE024A77EEA57AF7EE005AC8
:1021A00067EE847AF4EEE47AF1EE10FA88BFF0EE8E
:1021B000647AF4EEE57AF1EE10FAB8BFF0EE657AE3
:1021C00027EE277AB4EEC75AF1EE10FA7FF7DDAEAC
:1021D00000238BF87434FFF7EAB8BAF1000F40F02F
:1021E000B58000230393FFF7A5BB93FBF8FE08FB24
:1021F0001E3E0FFA8EFEFFF70CBBDBF81425012103
:1022000001FA03F323EA02035340CBF814354AE5FD
:10221000DBF80C25012303FA0AF323EA02035340F7
:10222000CBF80C3530E5BDF86010DBF81C250191CA
:10223000203B4CE592FBF5F605FB162216B2FFF7A4
:1022400064B9DFEDA26A01340DF1380994FBF7FEA1
:10225000CDED0D6A07FB1E44C9ED006A002F00F0AA
:10226000CB801FFA84FE791E0020721C12FA81F8BE
:102270000193B0EE666AAEEB060E0446314641F2BB
:102280005C2C03468E420EEB010221DC92FBF7F040
:1022900007FB10220BEB42020123B2F88804A0F5E1
:1022A00092526045A2F11C0298BFACEB000292B2C0
:1022B00002FB02F207EE902A07EE100AF8EEE77A28
:1022C000B8EEC77A1C4476EEA76A36EE076AA4B267
:1022D00001318845D6D11A46019B002A40F05D8124
:1022E00099ED007AACB107EE904AF8EEE77A9DEDF1
:1022F0000D5A9FED6F6AC7EE275AC5EE276AB1EEF9
:10230000E57A66EE867A27EE067ACDED0D7A89EDCE
:10231000007AF3EE0E7AB4EEE77AF1EE10FA1BDDF6
:10232000F1EE007AB4EEE77A0223F1EE10FA8BF8C0
:10233000CC347FF7A9A801238BF87534FFF7A4B834
:10234000B0EE490A484601F0EFF88DE4DDED097A78
:10235000B8EE677AFFF7DCBAF0EE007AB4EEE77A0F
:10236000F1EE10FADBF87C242DD4F1EE007AB4EE15
:10237000E77AF1EE10FAC4BF01218BF87514FFF76C
:10238000EBBB0BEBCA03DBF80425B3F92035DBF814
:10239000801413449942BFF41BAF02994FF47A732F
:1023A00003FB01F36433934238BF13460022CBF89A
:1023B00080348BF87424FEF7FABF002404944DE5B2
:1023C000224600258AE5F1EE007AB4EEE77A032092
:1023D0000021F1EE10FA8BF8CC048BF875147FF71E
:1023E000BEAB01218BF87514FFF7B9BB93FBF2F17B
:1023F00002FB113319B29CE403228BF8CC248BF836
:102400007584DBF87C24FFF7AABB1346002D3FF44C
:1024100070AD6CE58442BFF664AD534507DA024601
:10242000012561E58BF800C56546FFF7C6B8034690
:102430005DE5ADF84EE0D8E41E4E039C15AD56F8B0
:10244000040B13F0A5F907EE900AFDEEE77A17EEFC
:10245000900A25F814000134032CF0D10FAB10AA18
:10246000B0EE680A1449284603F01AF89DED0F7A79
:10247000DFED127AB4EEE77AF1EE10FA11D580B9F9
:102480009BF8B434002B00F093809BF8BD3407EE2A
:10249000903AF8EEE77AB4EEE79AF1EE10FA00F32C
:1024A000878000232B60AB8019E600BFB88B00202B
:1024B0000AD7233C288C0020348C0020CDCCF43F5C
:1024C000BD378635ABAAAA3EABAA2A3E0000000063
:1024D000920A0640000096426F12833A00000D43B4
:1024E0002CB1CDED1A6A8DED1B7ACDED1C7A07EE7D
:1024F000908AB8EEE7BAF7EE007AC7EE8B9A002022
:102500000446DDED1AAA9DED1BAA9DED1C7A5FED38
:10251000117A69EEAAAA29EE8AAA69EE879AF0EEE4
:10252000675AB0EE675AF0EE674AB0EE674AF0EECF
:10253000673AC3B2984501EB000559D995FBF2F310
:1025400002FB1353DBB204330BEBC3030130B3F9CB
:10255000024506EE104AB3F90445B3F9063506EE16
:10256000904A07EE103AB8EEC66AF8EEE66AB8EEA0
:10257000C77A36EE6A6A76EECA6A37EE697AA6EEEE
:10258000064A0124E6EE264AE6EEA63AA6EE075AE9
:10259000E6EE875AE7EE077ACBE78DED0D6AC9EDD7
:1025A000006A9DE693FBF8F108FB113319B2B5E51B
:1025B000DDED097AB8EE677A5FED397A67EE277A52
:1025C000032317EE900A8BF8CC3413F0E1F807EEF2
:1025D000900AFCEEE77A002317EE900A8BF8743429
:1025E000CBF87804FEF7E3BEADF8D870FEF703BE73
:1025F0005CB1CDED313A8DED2E4ACDED2F4A8DED0A
:10260000305ACDED325ACDED337ADDED306ADDED65
:102610002F5A9DED326A1FED565ADDED2EBADDEDD3
:10262000317A9DED337A66EEA66AE5EEA56AE6EEAE
:10263000066AF4EEC56AF1EE10FA00F1BE803BEED8
:10264000A7DA1FED606A5FED605A3DEE07DAB0EE83
:10265000005A2DEE06DAB7EE006A77EECD7A7BEE01
:10266000CDBA67EEA77A37EE4D7AEBEEAB7A4FF044
:10267000000949464FF0020EE6EE857AE7EE077A4A
:1026800067EEA57AB1EEE7CA86EE0C7A4C1C01FB28
:1026900004F393FBFEF3A9EB0303C8B246AADDB231
:1026A0000C2303FB01210646002201905FFA82FC05
:1026B000019805EB0C036045DBB202F101072EA87F
:1026C00000EB830002FB07FC00F2DB80D0ED007A18
:1026D00000F0CF802EAA02EB8303D3ED007A67EEE1
:1026E000877AC1ED007A0336032FF6B201F10401B7
:1026F0003A46DBD109F10309032C5FFA89F9214637
:10270000C4D1DDED4E4A9DED496A9DED4B4ADDEDAC
:102710004D5A9DED4C7A9DED4A5ADDED473A66EEF5
:10272000647A65EEC46AE4EE077AE5EE246A27EE81
:10273000457A67EEA37ADDED464A9DED485AA5EE4F
:10274000867AE4EEA67AF6EE006AE5EE077ABFEE48
:10275000007A67EEA67AF4EEC77AF1EE10FA40F24C
:102760007281B7EE007AF4EEC77AF1EE10FAC0F299
:102770005F815FEDAACA1CEE900A11F0D4FA5FEDFA
:10278000AC7A7CEEA77A07EE100A3CEE0CCA17EE84
:10279000900AF0EE4DBAE7EE0CBA11F0C4FA06EE6C
:1027A000900AB0EE4D7AF0EE087AA6EE8C7AF0EE52
:1027B0006B6ADDEE276A76EEC77A77EE276AF0EE6F
:1027C000E77A76EEAB6AF0EEEBBAC6EE8B5AF4EE31
:1027D000EB7AB1EEE56AF1EE10FAB0EEC77A8CBF93
:1027E000F0EE6B6AF0EE676AF4EEC76AF1EE10FA8B
:1027F000F4EEEB7A88BFF0EE476AF1EE10FAB8BF5C
:10280000F0EE6B7AB4EEE77AF3EE095AF1EE10FAD5
:1028100066EEA55AA8BFF0EE477AF4EEE57AF1EE3F
:1028200010FA28EE867A19DCB3EE046A66EE866A40
:10283000F4EEE67AF1EE10FA02DDB8F1220F0DD9CE
:102840005FEDDC7AB4EEE77AF1EE10FA06DCF3EE37
:10285000047AB4EEE77AF1EE10FA17D5DDED097AD5
:10286000B8EE677A5FEDE47A67EE277A17EE900AA2
:10287000ABE677EECD7A571C67EE877AC1ED007A2A
:1028800031E79CFBFEF3F31ADBB223E71FEDED7A91
:10289000C7EE287A0023CDE93233359307EE10AA2C
:1028A000B8EEC78AB4EEE78AF1EE10FA09D4FDEE6D
:1028B000E77A17EE903A0FFA83FA07EE90AAB8EE8D
:1028C000E78A9FEDCE7AC7EE287AB4EEE78AF1EE7A
:1028D00010FA09DCFDEEE77A17EE903A0FFA83FA68
:1028E00007EE90AAB8EEE78ADFEDC57A9FEDC57ACC
:1028F00068EEA77A28EE278AB4EEC78AF1EE10FABE
:1029000040F30A85F0EE007AB4EEE78AF1EE10FAB1
:1029100040F10285F6EE007A48EE277A9FEDB77A0D
:102920009FEDB9BA9FEDB98A67EE877A68EEAAAAD9
:1029300028EE8AAA68EEA99ACDED2EAA8DED2FAACF
:10294000CDED309ACDED317ACDED347A00242146AB
:10295000402236A8CDE92144CDE92344CDE91D44E8
:10296000CDE91F44FDF7E0FC2146402246A8FDF7D3
:10297000DBFCDDED314ADFEDA67AF4EEE74AF1EE5D
:1029800010FA00F1A6809BF800459BF801059BF921
:102990000235844203F1010300F0B7841B1B93FB53
:1029A000F0F200FB1233002B19B2BCBF1B1819B296
:1029B000DFF88C920025B7EE004A29AF1426EBB25F
:1029C0009C4276D94A1992FBF0F300FB1323DBB249
:1029D00004330BEBC303DDED2F6AB3F904259DED42
:1029E0002E6ADDED307A05EE102AB3F90225B3F92F
:1029F000063507EE102AB8EEC55AB8EEC77AD8EEFB
:102A0000856A98EE876A05EE903A26EEA67AF8EE89
:102A1000E55AA6EE067AD8EEA57AA7EEA77AB4EE26
:102A2000CB7AF1EE10FAF1EEC75A0FD50135C6E7B1
:102A300017EE900A11F054F9DFED76CA07EE900A0E
:102A400067EEACCA97E6DFED74CA94E684EE257AA9
:102A50000DF1840C25AA0023CDF8A09074EEE55A60
:102A600027EE466A67EE666A67EE677A8DED256A3D
:102A7000CDED266ACDED277ADCED007A92ED007A75
:102A8000E5EE877A0DF1D80E06FB03E89646ECECEE
:102A9000017AD8ED007AFEEC016AE7EE267A7745F6
:102AA000E8EC017AF5D10133042B02F10402E3D101
:102AB000BCE737A90322002301F10C009A4201EB85
:102AC000830400F02D84256800EB03140133256096
:102AD000F4E7DFED529ADFED527AB0EE697AB0EEAC
:102AE000086ADDED316ADFED455AF4EEC67AF1EEA3
:102AF00010FA85EEA68A0EDCDFED4A7AB4EEE77AAC
:102B0000F1EE10FA07DCDFED427AF4EEE76AF1EE5F
:102B100010FA00F29F80444B9FED418A2593349335
:102B20009FED365ADDED315A9DED347A9DED2E6ADA
:102B3000DDED2FAA9DED30AADDED256AC5EE257AE3
:102B400000234793489349934B934C934D93B5EE91
:102B5000C07AF1EE10FA29EE066ACDED467ACDED97
:102B60004A7ACDED4E7A69EE2AAA29EE0AAA41D414
:102B7000F5EEC06AF1EE10FA3CD4C6EE875AF7EED5
:102B8000009A79EEE59ADFED296ADFED295AB7EE72
:102B9000007A77EEE66A37EEC77AF4EEE57AF1EE80
:102BA00010FAF0EEE66AB0EEC77A06DDDFED217AC4
:102BB000F4EEE76AF1EE10FA7DD4DFED1F7AB4EEA1
:102BC000E77AF1EE10FA76DB9FED1C7A9BF8003580
:102BD000C7EE287AB0EE087AFCEEE77A87EE280A8C
:102BE00017EE902A90B213B1013B8BF8003500F03C
:102BF0009BFC33E6DFED099AC5E700BF00003C42CD
:102C0000414C2E3CCDCC4C3ECCBC8C2BBD378635BC
:102C1000CDCCCC3DABAAAA3E920A863F0000000074
:102C20000100F041CDCC0C4000003C42CDCC8C3FAB
:102C30006666E63E6666263F3333B33E00003D439C
:102C4000000080BF9A99193F6F12833A0AD7233C3C
:102C500000007A442422002146A8FDF765FB2EAD32
:102C60000024F5EC017A69EE277A17EE900A12F04B
:102C70008FFD07EE900AFDEEE77A36AA17EE900A6E
:102C800046AB03EB041322F814000134032C83ED4C
:102C9000008AE6D125AB34AAB0EE680A46A936A868
:102CA00002F0FEFB9DED258A78EE087A28EE298A4F
:102CB000CDED257A34E75FED1D7AF4EEE79AF1EE7B
:102CC00010FA81D416EE100A12F062FD07EE900A97
:102CD000FDEEE77A15AD17EE903A1AEE900A2B80CA
:102CE00012F056FD07EE900AFDEEE77A1AEE100A92
:102CF00017EE903A6B8012F04BFDDDED097A06EE8F
:102D0000900AB8EE677AFDEEE66A5FED317A16EE6C
:102D1000903A67EE277AAB8017EE900A12F038FDF2
:102D200007EE900AFCEEE77A0FAB17EE904AB0EE92
:102D3000680A284610AA46A9CBF8784402F0B0FBEE
:102D40009BF800455FED3F6AC4EB04135B0007EEA0
:102D5000903A07EE100AF8EEE77AB8EEC77A67EE17
:102D6000A67AB4EEE77AF1EE10FA00F3CB829DED8D
:102D70000F7AF2EE047AB4EEE77AF1EE10FA40F34D
:102D8000BE829BF8B484B8FA88F84FEA5818DDED93
:102D90000F7ADBF87874299769EE277AC7EEA97A5B
:102DA00017EE900A12F0F4FC07EE900AFCEEE77AB8
:102DB00017EE903A69EE087A8DF8A83017EE900A6F
:102DC00012F0E6FC07EE900AFCEEE77A1FED607A5F
:102DD00017EE900A0DF1AE028DF8A900002346A966
:102DE00001EB0311D1ED007A35F8131022F8041C21
:102DF00067EE877A0133FCEEE77A032B17EE901A21
:102E000022F8021FEBD1049B13B1FF238DF8A830E9
:102E100000268BF87464B8F1000F3EF4C8AA9BF842
:102E2000B4348BF87564002B40F0F080724D0DF1D6
:102E300038090DF1AA060DF1A408B8E80F00DFF873
:102E4000C4E1CBF87C741EED150ABDF8B0A0BDF846
:102E5000B2C0DFED6D7AD8F80080AEF15807AEE869
:102E60000F00BDF9AA30BDF8B420CEF8008003EE03
:102E7000903ABDF9AC309BF8850404EE103ABDF9E8
:102E8000AE3004EE903A4FF47A7303FB0AF105EE8C
:102E9000101A03FB0CF103FB02F305EE901A06EE89
:102EA000103AB8EEC55AF8EEE55AB8EEC66A25EE05
:102EB000275A65EEA75A26EE276AF8EEE33AB8EEEF
:102EC000C44AF8EEE44A01230021FF2287ED1F5A8D
:102ED000C7ED235A87ED276AC7ED1C3A87ED1D4AD7
:102EE000C7ED1E4A8BF8B4348BF8CD348BF88414BC
:102EF0008BF88624002C4ED09FED403A9BF801754C
:102F000020EE033A4FF0FF328C469CFBF7F307FBB1
:102F100013C3DBB215330BEBC30302F1010CB3F99E
:102F20007C2407EE902AB3F97A24B3F97E3406EEB6
:102F3000902A9CFBF0F2F8EEE77AF8EEE66A77EE7C
:102F4000C47A07EE103A76EEE36A67EEA57A66EE8B
:102F5000856A67EEA77AB8EEC77AE6EEA67A00FB36
:102F600012C252B237EE647A013127EE067A09B204
:102F7000E7EE077A0BEB4203A1428C46B1EEE77A0B
:102F800067EE037AFCEEE77A17EE90EAA3F888E49E
:102F9000BBDB8BF88624844228BF04462946304692
:102FA0004B460DAA8BF8844402F07AFA9FED147A0E
:102FB000DDED0D7AD9ED006A77EEC77AB1EE007AD1
:102FC000F0EEE77AF4EEC77AF1EE10FA40F175818F
:102FD000F4EEC76AF1EE10FA40F16F8103239DF819
:102FE000A8208BF8CC34C82A7EF6E1A902238BF8FE
:102FF000CC34FEF7DCB900BF348C00200000C8429E
:1030000000003C42108C0020BD378635BDF8B4006E
:10301000BDF8B010BDF8B2201FED056AD24D47963D
:103020004FF47A7303FB01F103FB02F203FB00F39D
:1030300006EE901A07EE102A07EE903AF8EEE66ACE
:10304000B8EEC77AF8EEE77A66EE866A27EE067A79
:1030500067EE867A15ED1E0A4896294636AB0DAA0C
:1030600049964B964C964D960DF13809A5F11E00E8
:103070000DF1AA06CDED466A8DED4A7ACDED4E7A78
:1030800002F00EFA46A94B4630460DAA15ED1E0A6F
:1030900002F006FADFEDB56ADDED0D7A99ED007A02
:1030A00077EEE67AF1EE006AF0EEE77AF4EEE67A91
:1030B000F1EE10FA40F11081B4EEE67AF1EE10FA7A
:1030C00040F10A810323DDED366AF7EE087A66EEF9
:1030D000A77AB4EEE77AF1EE10FA7EF568A99BF8CC
:1030E000CC249A423EF663A9F0EE087A67EE277A7E
:1030F000F4EEE76AF1EE10FA0ED4F1EE007AF4EE97
:10310000E76AF1EE10FA40F1D4809BF8BC249DF8F8
:10311000A8309A4280F0CD80954BBBF9C014BDF920
:10312000AC70BBF9BE04BDF9AAE0D3ED015ABBF9FE
:10313000C224BDF9AE40CB1BA0EB0E0C002BB8BFD8
:103140005B42BCF1000FB8BFCCF1000C6345B8BFC7
:103150006346A2EB040CBCF1000F1BB2B8BFCCF16C
:10316000000C6345B8BF63461BB207EE903AF8EE19
:10317000E77AB1EE046A67EEA57AF4EEC67AF1EE6C
:1031800010FA40F1968037EE267ABBF8C434C6EECA
:10319000873A04EE903ABBF8C63405EE103ABBF815
:1031A000C83407EE900A05EE903A9BF8BC34B7EEAF
:1031B000006A36EE634AF8EEE76A06EE103A03EE6E
:1031C00010EABDF8B03007EE901A00EE903A66EEC5
:1031D000846AB8EEC32AF8EEE44ABDF8B230B8EE1D
:1031E000E77A64EE844A03EE107AF8EEE00AE3EE42
:1031F000826A07EE902A01EE103A27EE047ABDF8B3
:10320000B430F8EEC32AB8EEC55AE3EEA04A01EE98
:10321000903A25EE045A9DF8A830F8EEE77AF8EED9
:10322000E55AB8EEC66AB8EEC11A03EE104AA3EE2C
:10323000A27AFDEEE66A67EE847A65EE845A26EE9F
:10324000046A16EE902A04EE103AB8EEC33AA3EEE2
:10325000815AADF8AA20FCEEE44AF8EEE11A14EE29
:10326000902AB8EEC44AE3EE837AADF8B020BDEE02
:10327000C77AE3EEA15A17EE102AA3EE846AADF8DE
:10328000AC20BCEEC55AFDEEE77A15EE102AFCEE36
:10329000E55ABCEEC66AADF8B22017EE902A16EEDB
:1032A000103AADF8AE2015EE902A8DF8A830ADF8A2
:1032B000B420299F9BF80045BDE5B2EE007AF4EEFC
:1032C000C77AF1EE10FA16D5F4EEC76AF1EE10FAED
:1032D0004CBF0223012382E6F2EE006AF4EEE67AA6
:1032E000F1EE10FA09D5B4EEE67AF1EE10FA4CBF21
:1032F00002230123E7E6012371E60123E3E64FF011
:10330000010844E54FF0000841E593FBF4F104FBAC
:10331000113319B2FFF74CBBF7EE007AFFF7FEBA94
:10332000013A531C01F114017FF4C5AB4022002186
:1033300046A8FCF7F9FF46A900224FF0140E36AC60
:1033400056B2002001EB8609034604EB02180EFB7F
:10335000024C46AC04EB0315C4B22F4601EB8404C7
:103360008A46DFED057A13E0348C002000003C42F1
:10337000B88B0020CDCCCC3D000000009A99993E3E
:103380006666663FFAEC016AB7EC017AE6EE877A88
:10339000A245F7D19E4200F0B5809B001D44D5EDBB
:1033A000006AB0EEE67AB4EEC87AF1EE10FA3FF5B4
:1033B00090AB08EB030494ED007A77EE677A0B4448
:1033C00087EEA67A83ED007A013043B2B342C0DDC6
:1033D0000132042A01F11001B1D121AA1DA946A888
:1033E00008F0A0FA5FED1D9A21AD25AE0DF1900811
:1033F00000244FF07E57CDE92144CDE9234421AA92
:1034000025A946A845F8047B08F08CFAB6EC017AA9
:10341000B5EEC07AF1EE10FA40F38380F1EEC77A90
:10342000F4EEE79AF1EE10FAB8BFF0EE679AA8450D
:10343000E1D19DED317ADDED206AFEEE007A67EE96
:10344000277AF4EEE76AF1EE10FA01D5CDED207A95
:103450009DED1D4A9DED1E5A1FED392A9DED1F6AF7
:10346000DDED305ADDED2E3ADDED2F4ADDED206A3F
:103470009DED313A5FED3F2AB0EEC47AF0EEC57AA9
:10348000B4EEE77AF1EE10FAA8BFF0EE477AF4EE68
:10349000C27AF1EE10FAB0EEC67AB8BFF0EE427A18
:1034A000B4EEE77AF1EE10FAA8BFF0EE477A35EE07
:1034B000866A33EE844A34EE855A73EE265AF4EE69
:1034C000E27AF1EE10FA8DED2E4A8DED2F5A8DED48
:1034D000306ACDED315AB0EEE67A0AD55FED586A22
:1034E000B4EEE67AF1EE10FA03D5009B012B3FF61D
:1034F000F6AA009B0133DBB2052B00937FF426AACA
:10350000FFF7EDBA9CED007AF4EEC77AF1EE10FA0F
:103510007FF5DFAA77EE677AB1EEE77A89ED007A78
:1035200052E7F2EE049A82E72DE9F04F984E2DED26
:10353000028B96F8009596F8018596F902150023FE
:10354000C1458FB001F10101C6F80835C6F80C3548
:10355000C6F81035C6F81435C6F81C35C6F8183547
:1035600000F00B81A1EB090191FBF8F308FB1311AB
:103570000BB200290193C0F2FC80B9F1000F07D112
:10358000FF2386F802350FB0BDEC028BBDE8F08F4B
:103590000025F7EE007ACDF8189087EE808A09951D
:1035A000AA460D9507950A9502950B9503950C95DE
:1035B000049508950595012781462BE0059B203C45
:1035C00007FA04F424EA030463400593BBF11F0FD8
:1035D0004FF00103089340F29180039AABF120036E
:1035E00007FA03F323EA0203534003931F294FF022
:1035F00001030B9300F28F8001230135069A099392
:1036000007FA01F1EBB221EA0A019A428AEA010AB9
:1036100040F29180019B591991FBF8F308FB1313B9
:10362000DBB203F1040B06EBCB01B1F9020590FB11
:10363000F9F109FB11010029B8BF49440BB207EEAB
:10364000903AF8EEE77A67EE887A17EE900A12F071
:103650009FF806EBCB0107EE900AB1F9040590FB49
:10366000F9F109FB11010029B8BF4944FCEEE77AE2
:103670000BB2CDED007A07EE903AF8EEE77A9DF8BE
:10368000004067EE887A17EE900A12F081F806EB98
:10369000CB0307EE900AB3F9063593FBF9F109FB6A
:1036A00011310029B8BF4944FCEEE77A0BB2CDEDE9
:1036B000007A07EE903AF8EEE77A9DF800B067EEF0
:1036C000887A17EE900A12F063F807EE900AFCEE83
:1036D000E77A1F2CCDED007A9DF800103FF66EAF13
:1036E000049B07FA04F424EA030463400493BBF147
:1036F0001F0F4FF001030C933FF66FAF029A07FACA
:103700000BF323EA0203534002931F294FF00103F6
:103710000A937FF671AF079B069A203907FA01F1E9
:1037200021EA03014B400793013501230D93EBB2CE
:103730009A423FF66FAF089B52462BBB0C9B13B1CE
:10374000049BC6F80C350B9B13B1039BC6F81035D0
:103750000A9B13B1029BC6F814350D9B13B1079B4E
:10376000C6F81C35099B002B3FF40DAFC6F8182591
:1037700009E741440BB20193FFE691FBF9F309FB22
:1037800013110BB20193F8E6059BC6F80835D5E78F
:10379000588700200DF0BEBA0DF0BFBA104B93F859
:1037A000493D0BB91846704770B40E4E05460FCE12
:1037B0008BB001AC0FC4336824F8023B1B0C2370A0
:1037C00001AC0FCC2688EB60A47828601223184641
:1037D0006960AA602E82AC740BB070BC704700BFE9
:1037E00058870020A0700108154B93F8492D02B9A5
:1037F000704703F58C62D2ED1C6A92ED1D7AD2ED12
:103800001E7A9FED106A93F8CC340373FDEEE66ADE
:10381000BDEEC77AFDEEE77AF8EEE66AB8EEC77A53
:10382000F8EEE77A66EE866A27EE067A67EE867A23
:10383000C0ED006A80ED017AC0ED027A704700BFEA
:10384000588700206F12033B2DE9F041504C94F84B
:10385000493D0BB9BDE8F081431EB3F57A7FF9D23B
:103860000E46054607B2002900F0898004F58C68F1
:1038700000264046FDF74EFA4FF47A7331464FF476
:10388000487204F5A060A4F8B03484F8A864C4F8C1
:10389000AC6484F8746484F87564FCF745FD5F22B9
:1038A0004FF48070FF23314684F801254FF4706C8B
:1038B0002E22A4F8B40404F2CE4084F8023584F831
:1038C0008634C4F87864C4F87C64C4F88064A4F8CE
:1038D00084C4FCF729FDA5F10A039BB24FF07E5288
:1038E0000121322B84F8CC64C8F87C20C8F88C20E5
:1038F000C8F89C2084F8CD1401D884F8A8140021BD
:103900002448FDF79DF9B4F96234234A5B1B07EEA6
:10391000903AF8EEE77AC823F0EEE77A93FBF5F3F6
:10392000B7EE007ADBB20F2BF4EEC77A28BF0F2375
:10393000F1EE10FA84F86E3DC2F8C4500EDCD8EDFA
:10394000017ADFED166A9FED167A77EEE67AF0EEF1
:10395000E77AF4EEC77AF1EE10FA0BDD0D48FDF7C9
:10396000E5F9104AA4F862744FF49663C8F804208D
:10397000A4F86034002384F8E83DBDE8F08104F247
:103980007440FDF79DF904F58C6884F8A864BAE7E3
:1039900058870020B88B002050130020CDCCCC3DA0
:1039A0000AD7233CCDCCCC3D4C4B93F8492D002A73
:1039B0007FD090ED007ADFED4A7AF0B567EE277A96
:1039C000B5EEC07AF1EE10FAB6EE007AACBF77EE43
:1039D000877A77EEC77A85B0FDEEE77A90ED017AC7
:1039E000CDED017ADFED3E7A93F8E82D67EE277A88
:1039F000B5EEC07AF1EE10FAB6EE007AACBF77EE13
:103A0000877A77EEC77A90ED027AFDEEE77AB5EE27
:103A1000C07ACDED027ADFED327A67EE277AF1EEE9
:103A200010FAB6EE007AACBF77EE877A77EEC77AF7
:103A3000DDE90146FDEEE77ACDED037A17EE905A07
:103A40007AB32848D100D0F8C4005F1810FB02F008
:103A5000A7F8700D47F6FE70234F8442A8BF0446B6
:103A60008542A8BF0546BC42B8BF3C46BE4203DB08
:103A7000B042A8BF304600B21B4F93F86E6D0132C2
:103A80001944D2B2BD42B8BF3D46964283F8E82DF4
:103A9000A1F8724DA1F8740DA1F8765D0AD005B0B9
:103AA000F0BDC168C3F8681D012183F86C1D114683
:103AB000D0E770470D490022A1F6081083F8E82DE1
:103AC00007F086FF0A4901F14800FDF733F90128A4
:103AD000E5D105B0BDE8F040FDF7D0B9588700202A
:103AE0000000FA43501300200280FFFFC094002022
:103AF000B88B00200C4B93F8492D12B1C3F84C0D34
:103B000000B9704730B4094A094803F582640021BE
:103B100003F214434FF0FF45A2F8DC1882F8DE18D8
:103B20002560186030BC704758870020580200207C
:103B3000000080FF0D4B93F8492D12B1C3F8500DD2
:103B400000B9704730B40A4A0A4841F2B41500215E
:103B5000515341F2B6154FF0FF44515503F58262BF
:103B600003F214431460186030BC7047588700207B
:103B700058020020000080FF284B93F8492D02B91D
:103B800070470028FCD070B403F60442D168546832
:103B9000156805604460816093F8191C017303F691
:103BA000C4118C6ACE6A0D6BD16A0461946A126B7F
:103BB00042628561C46146610162194A93F83D1C05
:103BC00080F8281093F83E6CD3F8545D147811797E
:103BD000137A80F83560856380F8294080F82D10CD
:103BE00080F8313054785179557A80F82A40002392
:103BF000947880F82E109179927A80F8325080F87B
:103C00002B4080F82F1080F8332080F82C3080F87B
:103C1000303080F8343070BC704700BF58870020C7
:103C200058020020000000000A490B4A2DE9F84F15
:103C30000B68012023F001030B60134610601D6820
:103C4000002DFCD1054B064A1A601A68054B9A42B2
:103C50000AD0FEE7002000E00830024000300240B9
:103C6000C2A507F4CDB5E8B5EF4CDFEDF07AF04E24
:103C7000DFEDF06AC4F84C5D4FF001099FEDE05BA9
:103C80009FEDE11B9FEDE22B9FEDE33B0FF2903B9D
:103C9000DBE900ABC4F8505D84F8499D07F032FEC3
:103CA00041F2B41041F2B611B7EE007A06F6E80818
:103CB0000A223552755488ED025B88ED041B88EDAD
:103CC000062BC8E908AB88ED0A3B88ED827A86F8B6
:103CD000E028C8ED837AC8ED847AC4F81854C4F893
:103CE0002454C4F83054C4F81C5484F82054C4F844
:103CF000285484F82C54C4F8345484F8385407F009
:103D000001FE04F60C3386ED065BDFEDCB4A9FED3A
:103D1000CB5ADFEDCB5ADFF848C3CA48CA49CB4A71
:103D200086ED867A04F6CC0E04F6044786ED081B71
:103D300086ED0A2BB2EE046AC6E90CAB86ED0E3BAB
:103D40004FF0020A83ED217A83ED257A83ED297AFB
:103D5000C6ED877AC6ED887AC3ED1E7AC3ED1F7A69
:103D6000C3ED207AC3ED227AC3ED237AC3ED247A22
:103D7000C3ED267AC3ED277AC3ED287AA6F8DC587E
:103D800086F8DE5886F80C904FF0013BC4F83C549E
:103D9000C4F84854C4F85454C4F8405484F8445403
:103DA000C4F84C5484F85054C4F8585484F85C5403
:103DB000C3ED2A7A83ED2D7A83ED317A83ED357A5E
:103DC00083ED397A83ED3D7A83ED0F7A83ED137AB3
:103DD00083ED177AC3ED2B7AC3ED2C7AC3ED2E7ADF
:103DE000C3ED2F7AC3ED307AC3ED327AC3ED337A67
:103DF000C3ED347AC3ED367AC3ED377AC3ED387A42
:103E0000C3ED3A7AC3ED3B7AC3ED3C7AC3ED107A49
:103E1000C3ED117AC3ED127AC3ED147AC3ED157AAE
:103E2000C3ED167AC3ED187AC3ED197AC3ED1A7A89
:103E3000C3ED1B7AC3ED1C7AC3ED1D7A4FF40073FA
:103E4000C4F82CCCC4F8300CC4F8341CC4F8382C9A
:103E5000C8ED287AC8ED297AC8ED2A7A87ED087A64
:103E600004F6C418C7ED004A87ED015AC7ED025A9F
:103E7000C7ED036A87ED046A8EED217A8EED257A0F
:103E80008EED297ACEED1E7ACEED1F7ACEED207A18
:103E9000CEED227ACEED237ACEED247ACEED267ABF
:103EA000CEED277ACEED287AA4F83C3CC4F81C9CD1
:103EB00084F8289C84F83E5CC4F818BC84F820ACD4
:103EC000CEED2A7A8EED2D7A8EED317A8EED357A21
:103ED0008EED397A8EED3D7A8EED0F7A8EED137A76
:103EE0008EED177ACEED2B7ACEED2C7ACEED2E7AA2
:103EF000CEED2F7ACEED307ACEED327ACEED337A2A
:103F0000CEED347ACEED367ACEED377ACEED387A04
:103F1000CEED3A7ACEED3B7ACEED3C7ACEED107A0C
:103F2000CEED117ACEED127ACEED147ACEED157A71
:103F3000CEED167ACEED187ACEED197ACEED1A7A4C
:103F4000CEED1B7ACEED1C7AA4F8FC39404BC4F8B8
:103F5000ECC9C4F8F009C4F8F419C4F8F829C4F895
:103F6000D839C6ED2C7AC6ED2D7AC6ED2E7AC8ED7D
:103F7000004A88ED015AC8ED025AC8ED036A88ED7F
:103F8000046A88ED087ACEED1D7AC4F8DC9984F8CD
:103F9000E89984F8E0A984F8FE5901F005FE01F0E3
:103FA000DBFF4FF07F56DFF8BCC02A482A492B4A76
:103FB000264BDFF8B4E0C8ED036AC7ED036A84F866
:103FC000FDA984F8FE5984F83DAC84F83E5CC4F841
:103FD00019BCC4F8D9E9C8F800C0C7F800C0C8F8CF
:103FE00004607E60C8F82800B862C8F82C10F96236
:103FF000C8F830203A63C8F834307B63BDE8F88FE6
:1040000000000060AB6CC73F00000020405AC53F75
:1040100000000000B7DFBF3F00000060ED1F9F3FC2
:10402000000000C05E87B23F5887002000000000FB
:104030005802002083C02A3F8195633F21B02A4067
:10404000CFF7133F27A0093A0742B239CDCCCC3D78
:104050000101000117B7513A3480373A3480373BB9
:10406000282C71396666663F0100010100000000DE
:104070002DE9F04F2DED0A8B484D95F8493D95B04F
:1040800023B915B0BDEC0A8BBDE8F08FD1ED034A22
:104090000F68D1ED047AD1ED055A8B6891ED065A7F
:1040A00091ED074A91ED086A92ED009A05F60C36FB
:1040B00005F6CC0804464868D5F8501DC6ED064AFA
:1040C000F760C8F80C7086ED095AC8ED064A88ED0D
:1040D000095AC6ED077A3061C8F8100086ED0A4A21
:1040E000C8ED077A88ED0A4AC6ED085A7361C8F828
:1040F000143086ED0B6AC8ED085A88ED0B6A00296A
:1041000040F0FA8105F54467D5F84C3D002B49D1C4
:10411000234EB369F269B969A364FB69E264E160A3
:104120003A6A316A2361736A21656365796AD6F8F0
:1041300094306261F268A161D6F8A010E263A365D1
:10414000FA68D7F894306166D7F8A0102260E3616E
:104150003269D6F89830E365A1622264D6F8A420CB
:104160003B69D7F89810A266D7F8A42063607369FA
:10417000D6F89C50D6F8A8002162E2627969D7F897
:104180009C206364D7F8A83023632566E066A160AD
:10419000626215B0BDEC0A8BBDE8F08F5887002035
:1041A0005891002095F9433498ED070A95F95B245E
:1041B00098ED063A98ED086AD8ED0A6A98ED092A52
:1041C00095F8FD990AEE103A95F9423405EE103A49
:1041D00095F9443405EE903A95F93D34B8EECAAA03
:1041E00007EE903A95F9403409EE902AB8EEC55A98
:1041F00095F93C242AEE00AA07EE103A95F95534B9
:10420000A3EE05AA0BEE102A95F93F2408EE103A0A
:1042100095F95834F8EEE55A00EE902A95F95424B1
:1042200008EE903A0023089301EE102A099395F9BD
:1042300057240A93A6EE25AA0C930D930E9395F995
:104240005634D8ED0B5A8DED04AA01EE902A04EEF7
:10425000903A95F93E2495F95934F7EE00AA03EE09
:10426000902A05EE103A95F94124CDED0BAACDED3B
:104270000FAA95F95A34F8EEE77AB8EEC77AB8EE95
:10428000C88AF8EEE88A02EE903AF8EEE99AB8EEBB
:10429000CBBA28EE268A68EEA68A67EE807A27EEE9
:1042A000007AF8EEE00AB8EEC11AF8EEE11A69EE0B
:1042B000A69A95F95C34F8EEE22AEBEE037A04EE66
:1042C000102AA3EE207AA1EE028AE2EE218A06EEFF
:1042D000903AE2EE229A844BF8EEE33AB8EEC44A02
:1042E000F8EEE44AB8EEC55AF8EEE66AE3EE867AEE
:1042F0001B7BA6EE047AA4EEA58AE5EE858AE5EEA0
:10430000A69AF1EE47BAB1EE488AF1EE688AB1EEAC
:1043100067BACDED02BA8DED068ACDED058ACDEDF9
:10432000079A8DED03BAFBB167EEA77AE7EE077A3D
:10433000EAEE0A7A17EE900AFCF755FA11F038FA0D
:10434000FCF764FA0CEE100AFCF74DFA64A3D3E90B
:104350000023FCF79EF9002800F06982CDED02BA37
:104360008DED03BA8DED04AAB9F1000F00F057826C
:1043700007EE909AB8EEE77AF7EE006AC6EE877A13
:104380004A4668EEA78A28EE278A69EEA79A95F82A
:10439000E039D8ED0C6A98ED0D7AD8ED0E7A95F8E3
:1043A000DC090133DBB276EEA88A37EE088A77EEB5
:1043B000A99AB3FBF2F102FB113385F8E039C8ED9D
:1043C0000C8A88ED0D8AC8ED0E9A002840F03882DC
:1043D0000DF1300A454A02F14C061146A2F11000D7
:1043E00006F0E0FEA6F17C021146504606F0DAFE29
:1043F00006F11802A6F19C01A6F14C0006F0D2FECF
:1044000006F118021146A6F17C0006F0CBFED6EDAF
:10441000078A96ED069A96ED088AD6ED099A28EE57
:10442000A87AA9EE097AA8EE087AA9EEA97A17EE79
:10443000100AFCF7D8F911F0BBF9FCF7E7F907EE21
:10444000900AB7EE007AC7EE277A95F8E839012B83
:1044500027EE899A67EEA88A27EE888A67EEA97AFE
:1044600086ED069AC6ED078A86ED088AC6ED097ABA
:1044700000F0AF82DFF87CB095F8FE190191ABF146
:104480000C03ABF19402CDF800B0ABF1880002A9A7
:1044900006F0C8FE95F8FC29002385F8DE3993075D
:1044A00009D495F8E019B1FBF9F309FB131919F0D8
:1044B000FF0F00F0ED810E4A5046114606F072FEE5
:1044C00095F8FE39B269012B7FF423AED6ED087A58
:1044D000F369B361F1EE677AF261C6ED087A18E626
:1044E0008DEDB5A0F7C6B03E580200200C9100201B
:1044F000CC900020F891002095F9193495F92024EA
:1045000095F83D9C06EE903A95F91C3407EE103A6A
:1045100095F9343408EE903A95F9313408EE103AB2
:1045200095F9183403EE903A95F91F3409EE903A54
:1045300095F937340AEE103A95F91B3400EE903AAB
:1045400095F9333401EE103A95F9303401EE903A92
:1045500095F91A3403EE103A95F91E34F8EEE66A2E
:1045600002EE103A95F9363466EEA76AB8EEC77ACD
:10457000F8EEE99AF8EEE33A02EE903A95F91D3436
:1045800027EE277A69EEA79AF8EEE88AF0EE667AC7
:10459000B8EEC88AB8EECAAAE3EEA47A03EE903A5F
:1045A00095F9353468EE848A28EE048A2AEE04AA46
:1045B000B8EEC11AF8EEE11AF8EEE22A04EE103A6B
:1045C000F8EEE00A95F93234B8EEC22AE1EE058A37
:1045D000A1EE858AA2EE85AA05EE102A95F9382467
:1045E000A0EEA47AE2EE249A04EE903A06EE902A27
:1045F000B8EEC33AF8EEE33AB8EEC44AF8EEE44A4D
:10460000B8EEC55AF8EEE66AE5EE837A9A4AA5EE68
:10461000A37A00230893E6EE048A09930A93A6EE90
:10462000248A0C930D93E5EE859A0E93A6EE26AAA6
:10463000F7EE00BAF1EE67AAB1EE47BAF1EE688A7A
:10464000B1EE488ACDED049ACDED03AA8DED02BA04
:10465000CDED058A8DED07AACDED0BBACDED0FBAE4
:104660008DED068A92F8E038EBB167EEA77AE7EEB7
:10467000077AE9EEA97A17EE900AFCF7B4F811F080
:1046800097F8FCF7C3F807EE900ACBEEA77A2BEE6B
:1046900027BA6AEEA7AA69EEA79A8DED02BACDED08
:1046A00003AACDED049AB9F1000F00F0BC8007EE2B
:1046B000909AB8EEE77AF7EE006AC6EE877A4A4635
:1046C00068EEA78A28EE278A2AEE27AA95F8203CCA
:1046D000D6ED0C6A96ED0D7AD6ED0E7A95F81C0C97
:1046E0000133DBB276EEA88A37EE088A37EE8AAA63
:1046F000B3FBF2F102FB113385F8203CC6ED0C8AC6
:1047000086ED0D8A86ED0EAA002840F0A7800DF1F7
:10471000300A5A4A02F14C071146A2F1100006F085
:1047200041FDA7F17C021146504606F03BFD07F122
:104730001802A7F19C01A7F14C0006F033FD07F128
:1047400018021146A7F17C0006F02CFDD7ED078A70
:10475000D7ED069A97ED088A97ED09AA28EEA87A70
:10476000A9EEA97AA8EE087AAAEE0A7A17EE100A3C
:10477000FCF739F811F01CF8FCF748F807EE900A3E
:10478000B7EE007AC7EE277A95F8283C012B67EE42
:10479000A99A67EEA88A27EE888A67EE8A7AC7ED1B
:1047A000069AC7ED078A87ED088AC7ED097A00F0F7
:1047B000B781DFF8D8B095F83E1C0191ABF10C033E
:1047C000ABF1940202A9CDF800B0ABF1880006F07D
:1047D00029FD95F83C2C0023910785F81E3C09D44F
:1047E00095F8201CB1FBF9F309FB131919F0FF0F21
:1047F00000F0F680224A5046114606F0D3FC95F8A8
:104800003E3C012B7FF480ACD7ED087ABA69FB6996
:10481000BB61F1EE677AFA61C7ED087A74E40122B0
:1048200085F8FD29B3E5012285F83D2C4EE7CAEE57
:104830008C7A6BEEA7BA2BEE27BA2AEE27AA8DE563
:10484000104B0DF1300AB0EE490AA3F10C021846E4
:10485000CDF800A005A900F09BFDBBE50A4B0DF1CA
:10486000300AA3F10C021846CDF800A0B0EE490AB8
:1048700005A900F08DFD4CE7580200204C93002064
:104880000C9300209C900020DC92002038940020A3
:10489000D8F88830D8F88C00D8F89010C8F898303C
:1048A00042F00102D8F89430C8F89C0085F8FC2941
:1048B000504610AAC8F8A010ABF59671C8F8A430FD
:1048C00006F070FC08AAABF5A671ABF5867006F091
:1048D00069FC08AA114610A806F064FC9DED099A2F
:1048E000DDED089ADDED0A8A9DED0B8A69EE097A05
:1048F000E9EEA97AE8EEA87AE8EE087A17EE900ACF
:10490000FBF771FF10F054FFFBF780FF95F8FD39BE
:1049100098ED336AD8ED326AD8ED344AD8F8AC1045
:10492000D8F8B020C8F8BC1007EE103AB8EE477AB5
:10493000B7EE005AC5EE077AD8F8A830C8F8B830F4
:10494000D8F8B430C8F8C020C8F8C43007EE100A50
:10495000C5EE075A27EE866A67EEA66A26EE067A45
:1049600067EEA47AA6EEA67A69EEA59AA7EEA77AD4
:1049700029EE259A68EEA58A28EE258AB4EEC57A36
:10498000F1EE10FAC8ED1E9A88ED1F9AC8ED208A44
:1049900088ED218A88ED376AC8ED366AC8ED387A25
:1049A00000F1C580002000234FF07E52C8F8E400DB
:1049B000C8F8A830C8F8AC30C8F8B030C8F8E8304B
:1049C000C8F8EC30C8F8F030C8F8B420C8F8F420C3
:1049D00076E5002386ED097AB361F361336249E538
:1049E000D6F88830D6F88C00D6F89010C6F89830F3
:1049F00042F00102D6F89430C6F89C0085F83C2CB1
:104A0000504610AAC6F8A010ABF59671C6F8A430AF
:104A100006F0C8FB08AAABF5A671ABF5867006F0E8
:104A2000C1FB08AA114610A806F0BCFBDDED098AFF
:104A3000DDED089A9DED0A8A9DED0BAA68EEA87A35
:104A4000E9EEA97AE8EE087AEAEE0A7A17EE900A19
:104A5000FBF7C9FE10F0ACFEFBF7D8FE95F83D3C25
:104A6000D6ED335A96ED326AD6ED344AD6F8AC100C
:104A7000D6F8B020C6F8BC1007EE103AB8EE477A68
:104A8000B7EE005AC5EE077AD6F8A830C6F8B830A7
:104A9000D6F8B430C6F8C020C6F8C43007EE100A05
:104AA00085EE077A67EEA55A27EE866A65EEA56A57
:104AB00067EEA47AE6EE066A67EE299AE7EEA76A41
:104AC00067EE288A27EE088AF4EEC56A27EE0A7A8E
:104AD000F1EE10FAC6ED1E9AC6ED1F8A86ED208A09
:104AE00086ED217AC6ED375A86ED366AC6ED387AFC
:104AF00028D4002000234FF07E52C6F8E400C6F808
:104B0000A830C6F8AC30C6F8B030C6F8E830C6F801
:104B1000EC30C6F8F030C6F8B420C6F8F4206EE6E3
:104B2000002387ED097ABB61FB613B6241E675EECC
:104B3000477A17EE900AFBF756FE10F039FEFBF7A6
:104B400065FE30E775EE667A17EE900AFBF74BFECE
:104B500010F02EFEFBF75AFECCE700BFF8B52F4B46
:104B600093F8492D02B9F8BD0028FCD003F6C41211
:104B7000846806684568D460017B83F8D919D0F849
:104B800010E0D0F814C087691763C2F828E0C2F8B3
:104B90002CC090F8287083F8FD7990F835C083F820
:104BA000FEC983F8191C03F6044116605560026AB9
:104BB000D0F81CE0CA62426A83F83ECC83F83D7CA0
:104BC000876BC1F828E00A63154A0E604D60CC601F
:104BD000C3F8547D90F82930137090F82DE090F8C8
:104BE0002A7090F82E6090F8325090F82B4090F890
:104BF000333090F831C090F82F1082F804E05770ED
:104C0000567155729470937282F808C0917100F0D9
:104C1000CBFFBDE8F84001F09FB900BF58870020E6
:104C2000580200202DE9F043C14E2DED028B96F87D
:104C3000495D8BB025B90BB0BDEC028BBDE8F083AC
:104C4000044692ED008A002B00F0D780B94ACF6865
:104C5000D1F800E00D69D1F818C09761A2F5107085
:104C6000C2F80CE087614F68C0F80CE0D1F81CE096
:104C7000C2F824C0C0F824C0D1F814C0176107617D
:104C8000D6F8547DD561C5618D68096A5561C2F851
:104C900028E0C2F820C0D162C0F828E0C0F820C0E7
:104CA0004561C162D6F84C2D87B196F83C1CCD0702
:104CB00003D496F8FC19C80723D59F48D0F8C01034
:104CC000002940F39C800139C0F8C010002A00F090
:104CD0008E8096F8FC29D10740F189801846B0EE05
:104CE000480A019301F0A0FDD6F8501D019B41B187
:104CF00096F83C2CD20704D51846B0EE480A01F0CD
:104D000003FB8E4DEA69AF69D5F85C02D5F85812FD
:104D1000E160A764D5F860122F6AE26420616A6AD4
:104D2000D5F8640227656161EF68D5F84C12A0617F
:104D3000D5F894006265D5F8A020E763D5F8D47261
:104D4000A065D5F8E002216062662969D5F898204F
:104D5000E265E7612164A062D5F8A400D5F850228D
:104D6000D5F8D872D5F8E412A066D5F8540262607E
:104D70006A69D5F8E8322762D5F89C70E162D5F807
:104D8000A8106264D5F8DC226262A060E166236349
:104D900005F54F7105F5137003AA276606F0B6FCFA
:104DA000039BA36303AA05F1FC0105F10C0006F0C7
:104DB000ADFC039A96F8FE39626704F13C0104F1F8
:104DC000580204F1480000F05FFC96F83E3C84ED88
:104DD0001C0A04F11C02214604F10C0000F054FCF2
:104DE00084ED0D0A0BB0BDEC028BBDE8F083D6F864
:104DF000501D00297FF47CAF83E706AB26E7D6F889
:104E000058CDD6F8501D0CF1010E69B307EE90EAAB
:104E1000F8EEE77AB7EE007A87EE276ADFF8289196
:104E20004748C846B8EC017AD0ED014A90ED025AE5
:104E300090ED004AD8ED006AD9ED027A05EE90CAED
:104E4000F8EEE55AA5EE847AE5EEA46AE5EE857AF9
:104E500066EE866A27EE067A67EE867AC0ED016A0C
:104E600080ED007AC0ED027A002A71D007EE90EA58
:104E7000F8EEE77AB7EE007AC7EE275A3048DFF847
:104E8000CC90C6F858ED0746C846054608370435A5
:104E9000BEF5FA7F07EE90CAF8EC016A97ED005A6A
:104EA00099ED027AD5ED004A90ED004A98ED006A3E
:104EB000F8EEE77AA7EE857AE7EE846AA7EEA46AB1
:104EC000F0EE477A26EE256A26EEA57A67EEA57AF9
:104ED00085ED006A80ED007AC7ED007A7FF4F9AEC7
:104EE000002946D0F0EE466AB0EE677AD0ED007A3F
:104EF0001449B6EE006A66EE866A27EE067A67EE19
:104F0000867AC1ED0B6A81ED0C7AC1ED0A7A82BB1B
:104F10000021D6F84C2D0160002029603960C6F8C8
:104F2000580DC6F8540D002A7FF4D3AE5FE700BFDA
:104F300058870020649200205013002058910020D0
:104F4000B49400205C930020440F00206C060020E5
:104F5000BEF5FA7FC6F858ED7FF4C9AE1048051DBE
:104F600000F108070029D3D0D5ED006A97ED007A4B
:104F7000BCE7D5ED006A97ED007AD0ED007A094ADA
:104F8000B6EE006A66EE866A27EE067A67EE867AE5
:104F9000C2ED0B6A82ED0C7AC2ED0A7AB8E700BF67
:104FA000B49400201C9100202DE9F04F2DED108BC2
:104FB000BBB0DFF8CCE39DF8605114959DF86851C3
:104FC00015959DF86C5116959DF870511795824670
:104FD000884693461D46BEE80F000DF17C0CACE8F8
:104FE0000F009EE80300699ECDED180A8CE80300CF
:104FF000DDE95601F0EE40BA8DED191AB0EE61EA26
:10500000B0EE42BAF0EE629AB0EE43AAF0EE63AAB6
:10501000FBF7FCFB96F8CC38549C9DF86491649F98
:105020000CEE100A23B900220123326086F8CC3836
:10503000DFEDC77AC7EEAB7A17EE900AFBF7D3FB2A
:1050400010F0B6FBFBF7E2FB9FEDC25A95ED016A4B
:10505000D5ED007AD5ED026A9FEDBF4A9DED201A8D
:10506000DDED210ADDED225ADDED234A26EE056A4B
:1050700007EE100A67EE857A66EE856A85ED016AAD
:105080009DED246AC5ED007AC5ED026A84EE078ABB
:1050900027EE01FA67EE20EA67EE258A67EE24FA2A
:1050A00027EE06DAB9F1040F06D8DFE819F0390166
:1050B00046012E0105001001DFEDA87ADFEDA8CA38
:1050C00069EEA79A2AEE27AA6AEEA7AA69EE8C9A39
:1050D0002AEE0CAA6AEE8CAAF6EE00DA0022002371
:1050E000DDE95E0196ED009AFBF724FB68B1B5EEB1
:1050F000C09AF1EE10FA40F3EF80F3EE047AB4EECA
:10510000E79AF1EE10FA40F1E780F7EE007A79EED7
:10511000277A9FED949A9FED947AC6ED007A67EE18
:10512000897A6BEE2F4AF4EEC77AF1EE10FAB8BF27
:10513000F0EE477A88EE275A9FED8C6A6DEEA85AFA
:1051400027EE8F1A67EEAE0A64EEA74A2DEE066AC6
:1051500094ED0A7AD8ED017A94ED093A94ED054A76
:10516000D4ED036AD8ED003AD4ED022ACDED374AEA
:1051700077EEC77A94ED047AD4ED074A8DED386A5C
:1051800073EEC33A67EEA66A94ED003ACDED345A59
:1051900027EE877A67EE847A94ED014ACDED355A91
:1051A000E3EE236A2B461AAD94ED0B3ACDED365A59
:1051B000A3EE847A50460DF1B80A98ED024AD4ED78
:1051C000085A8DED255A34EE436AE2EEA37ADFF8F1
:1051D000B4E1DFF8B4C194ED064A8DED265AA4EE91
:1051E000867A25AC5A46E5EE867ADFF8A081E6EEAF
:1051F000046A8DED1D7AB7EE087A2BEE07BACDED75
:105200001C6A8DED2E1A8DED2F1A8DED301ACDED15
:10521000310ACDED320ACDED330ACDED1E7A8DED9A
:1052200039BA8DED275A1296689E11969DED607BD6
:10523000679E1096669ECDF80C908DED087B9DF8CC
:1052400054908DF868909DED5E7BCDE90E76639E5F
:105250009DF858900C96629E149904958DF869906B
:105260000B969DF85C90559E02911BAD8DED067BD3
:10527000B0EE4C2AF0EE6B1AB0EE6A1AF0EE4A0A63
:10528000B0EE690A1CA9CDE900A4CDED28CACDED88
:1052900029CACDED2ACA8DF86A900A960D95CDF8E7
:1052A000ACE0CDF8B4C0CDF8B08001F095FD21465A
:1052B000629805F00DFF659AFB6813603B695360C7
:1052C0007B6993603BB0BDEC108BBDE8F08FDFEDE8
:1052D00028CAF7EE00DA01E7DFED267A9FED236AB0
:1052E0003EEE27EADDED197A27EE8F1ADDED187A0A
:1052F0000023336067EEAE0A6DEEA85A6BEE2F4ABC
:1053000088EE0E5A2DEE066A22E769EE8C9A2AEE96
:105310000CAA6AEE8CAADFED18CAF1EE04DADDE61B
:10532000DFED167ADFED0ECA69EEA79A2AEE27AAFC
:105330006AEEA7AAF7EE00DAD0E669EE8C9A2AEEBA
:105340000CAA6AEE8CAADFED0ACAF7EE00DAC5E60F
:105350006F12033C35FA8E3C4260653B0000C84248
:105360006F12833ACDCC4C3DCDCC4C3E3333333FE2
:10537000A69BC43ABD378635ACC52737CDCCCC3DCE
:1053800088700108A69B443B52499D3A0AD7233CAA
:1053900070B592ED016A92ED007AD2ED026AD1ED1C
:1053A000027A2DED048BD1ED018A9FED3C8A91EDBF
:1053B000009A089D20EE088A78EEC68A39EE479A50
:1053C00068EE888A29EE089A28EEA87A77EEE67ABF
:1053D000A9EE097A06461C4627EE888AF0EE477A3F
:1053E000E8EE087AF5EE006A67EEA67AB7EE007A84
:1053F000F4EEC77AF1EE10FA45D40020B6EE000ABA
:1054000029EE009A68EE808A28EE008A2246E8603B
:10541000314685ED009AC5ED018A85ED028A284660
:1054200005F0C0FED4ED028A94ED019A94ED038A52
:10543000D4ED009A68EEA87AE9EE097AE8EE087AE7
:10544000E9EEA97A17EE900AFBF7CDF910F0B0F962
:10545000FBF7DCF907EE900AB7EE007AC7EE277A81
:1054600069EEA79A29EE279A68EEA78A28EE278A7E
:10547000C4ED009A84ED019AC4ED028A84ED038A9A
:10548000BDEC048B70BD77EE677A17EE900AFBF7E0
:10549000AAF910F08DF9FBF7B9F9AFE735FA8E3CB0
:1054A0002DE9F04F0024DFF8D8811C60146098F8D3
:1054B00000E598F801C598F90245F7EE007AE6454F
:1054C00083B004F1010487EE804A00F0C780A4EBAA
:1054D0000E0494FBFCF90CFB1944002C0FFA84F920
:1054E000BCBF64440FFA84F9DFED623AF3EE0E7A42
:1054F00064EE233A24EE274ABEF1000F00F0B58097
:105500000027B0F800B0B0F802A080880190DFED6D
:105510005A5A009701E0D2ED005A0198D1ED004AA5
:1055200091ED046AD1ED086A09EB070595FBFCF4DF
:105530000CFB1454E4B2043408EBC4040137B4F88F
:105540000265B4F80455B4F80645A6EB0B0636B26E
:1055500007EE906AA5EB0A052DB2241AB8EEE75AB9
:1055600007EE905A24B2B8EEE77A07EE904A25EE9D
:10557000245AF8EEE77A27EE067A67EEA67AFDEE71
:10558000C56ABDEEC77AFDEEE77A16EE900A17EE11
:10559000104A05B217EE900A14FB04F405FB05450A
:1055A00004B204FB045407EE904AF8EEE77A009840
:1055B000B1EEE77A461CFDB2BDEEC77A17EE100ACF
:1055C00000B207EE900AF8EEE77A37EEE37A77EE6C
:1055D000A57AB0EEC77ABDEEC77AC2ED007A17EEB3
:1055E000100A04B207EE104A04FB04F007EE900A1A
:1055F000B8EEC77AF8EEE77AB4EEC74A93ED007AD0
:10560000F1EE10FA48BFF0B277EE877A48BF00900B
:10561000AE45C3ED007A3FF67EAF0098DFED176A26
:1056200007EE10EAB8EEC77A87EE876AF1EEC67A1F
:1056300060EE277AF4EEE67AF1EE10FAB8BFF0EEFB
:10564000667AC3ED007AD2ED007A20EE270AC0EE2A
:10565000077AC2ED007A03B0BDE8F08F94FBFEF943
:105660000EFB19490FFA89F93EE7D3ED007A70462F
:10567000D4E700BF00003C42000000009A99593F67
:1056800058870020000000002DE9F047DC4D2DED8B
:105690000A8B92ED01BAD2ED00AA92ED02AAD0EDEA
:1056A00001BA90ED00CAD0ED02CA90ED039AD5F888
:1056B00020488A46B0EECB8AF0EEEA8AF0EECA9A2B
:1056C000002B45D118EE100AFBF78DF8B4EEE88AEE
:1056D000F1EE10FA06460F4640F1F680F4EEE98A44
:1056E000F1EE10FA40F3F08018EE900AFBF77BF829
:1056F000BFA3D3E900238046894630463946FAF7EE
:10570000CCFEF5EEC0AAF1EE10FA02460B4640467A
:10571000494640F30A82FAF7F2FF70B119EE900A97
:10572000FBF761F8B2A3D3E90023FAF7B6FE4246CD
:105730004B46FAF7AEFF002848D1052C00F2248230
:10574000DFE814F02001980047007E0147002001A7
:1057500018EE900AFBF747F8B4EEE88AF1EE10FA7B
:10576000F1EE6CCA06460F464FDDB4EEE98AF1EE63
:1057700010FA4ADD18EE100AFBF735F89CA3D3E9BE
:1057800000238046894630463946FAF786FEB5EE54
:10579000C0BAF1EE10FA02460B464046494640F3C5
:1057A000DD81FAF7ACFF002800F0198119EE900AAC
:1057B000FBF719F88EA3D3E90023FAF76EFE4246F1
:1057C0004B46FAF766FF002800F009810423C5F86C
:1057D00020389AED000ADFED8B7A30EE270ADFEDF4
:1057E0008A7AB4EEE70AF1EE10FAA8BF30EE670A43
:1057F000B5EEC00AF1EE10FA03D5DFED837A30EE94
:10580000270ABDEC0A8BBDE8F087F4EEE98AF1EED9
:1058100010FA40F3BA8018EE100AFAF7E4FF74A306
:10582000D3E90023FAF739FEF5EEC0AAF1EE10FA3B
:1058300032463B4640F34581FAF72BFF002800F043
:10584000CE8019EE900AFAF7CEFF69A3D3E90023C0
:10585000FAF723FE32463B46FAF71BFF002800F01A
:10586000BE80F0EE6B7A0123F0EE4CBAC5F820381A
:10587000B0EE67CA6BEEEB7AECEE0C7AECEEEC7AFB
:10588000E9EE097A2CEE899A17EE900AABEE8C9A23
:10589000FAF7A9FF79EE097A04460D4617EE900A49
:1058A000FAF7A1FF22462B460EF032FA52A3D3E9B3
:1058B0000023FAF7F2FD0022544BFAF7E8FDFAF75D
:1058C000A5FF00EE100A8AE7B4EEE98AF1EE10FABD
:1058D00029DD18EE900AFAF786FF45A3D3E90023E5
:1058E000FAF7DBFDB5EEC0BAF1EE10FA32463B46F0
:1058F00040F38E80FAF7CDFE00283FF41EAF19EE7C
:10590000900AFAF770FF3AA3D3E90023FAF7C5FD2E
:1059100032463B46FAF7BDFE00283FF40EAF0123A6
:10592000C5F82038A6E719EE900AFAF75CFF30A315
:10593000D3E900238046894630463946FAF7ADFD63
:10594000B5EEC0AAF1EE10FA02460B4640464946B3
:1059500040F3D580FAF7D3FE00283FF4EEAE18EE00
:10596000900AFAF740FF22A3D3E90023FAF795FD46
:1059700042464B46FAF78DFE00283FF4DEAE002388
:10598000C5F820389AED000A29E719A3D3E90023C6
:1059900030463946FAF781FD804619EE900A89466D
:1059A000FAF721FFB5EEC0AA06460F46F1EE10FA4F
:1059B0004046494632463B466CD5FAF76AFE70B11E
:1059C00018EE100AFAF70FFF09A3D3E90023FAF73C
:1059D00064FD32463B46FAF75CFE0028CFD1F0EE7C
:1059E0004C7AB0EE6BCAF0EE67BAA6E6AFF3008071
:1059F000000000E051B8F63F00000020DCA54C405C
:105A000058870020000034430000B4430080564013
:105A1000FAF73FFE00283FF490AE19EE900AFAF72D
:105A2000E2FE5BA3D3E90023FAF737FD32463B469B
:105A3000FAF72FFE00283FF480AE0323C5F8203884
:105A40006BEEEB7AECEE0C7AECEEEC7AE9EE097A9E
:105A50002CEE899A17EE900AABEE8C9AFAF7C3FEF9
:105A600079EE097A04460D4617EE900AFAF7BBFE66
:105A700022462B460EF04CF949A3D3E90023FAF74E
:105A80000CFD0022444BFAF761FCFAF7BFFE00EE72
:105A9000100AA4E6FAF7FDFD0028A0D018EE100ABF
:105AA000FAF7A1FE3AA3D3E90023FAF7F6FC32464F
:105AB0003B46FAF7EEFD002891D00223C5F82038C6
:105AC00087E6FAF7E6FD002889D019EE900AFAF782
:105AD0008AFE2FA3D3E90023FAF7DFFC32463B46C8
